:100000000C9428020C9450020C9450020C94500250
:100010000C9450020C9450020C9450020C94500218
:100020000C9450020C9450020C9450020C94500208
:100030000C9450020C9450020C9450020C945002F8
:100040000C9455080C9450020C9423080C94FD0752
:100050000C9450020C9450020C9450020C945002D8
:100060000C9450020C9450024128D441CF83008359
:100070003041ED846403128141E88385017941CBED
:1000800085392C00340241F7812041EA8200004189
:10009000C0812641C1811141C582353E41C781BE23
:1000A00041B182001B41F281084126810141E08F6C
:1000B0001F1A180A0F064587320A07020705004172
:1000C000E18F0025270510093A784D05180D383ABB
:1000D0001F41B6840A82270041B78107413A815502
:1000E000413681E8412A82000082013F412B820093
:1000F000008200EF4111FCFC4129D4FFFF00000009
:10010000000000000030787830300030006C6C6CFB
:1001100000000000006C6CFE6CFE6C6C00307CC05B
:10012000780CF8300000C6CC183066C600386C3841
:1001300076DCCC76006060C0000000000018306003
:100140006060301800603018181830600000663C9D
:10015000FF3C660000003030FC3030000000000042
:100160000000703060000000FC0000000000000093
:100170000000303000060C183060C0800078CCDC05
:10018000FCECCC780030F030303030FC0078CC0C17
:100190003860CCFC0078CC0C380CCC78001C3C6C63
:1001A000CCFE0C0C00FCC0F80C0CCC78003860C005
:1001B000F8CCCC7800FCCC0C183060600078CCCC4B
:1001C00078CCCC780078CCCC7C0C18700000003057
:1001D0003000303000000030300070306018306087
:1001E000C0603018000000FC00FC00000060301807
:1001F0000C1830600078CC0C18300030007CC6DE63
:10020000DEDEC078003078CCCCFCCCCC00FC66665E
:100210007C6666FC003C66C0C0C0663C00FC6C6648
:1002200066666CFC00FE6268786862FE00FE6268CA
:10023000786860F0003C66C0C0CE663E00CCCCCC96
:10024000FCCCCCCC0078303030303078001E0C0C38
:100250000CCCCC7800E6666C786C66E600F06060EA
:10026000606266FE00C6EEFED6C6C6C600C6E6F6EC
:10027000DECEC6C600386CC6C6C66C3800FC6666E4
:100280007C6060F00078CCCCCCDC781C00FC66662E
:100290007C786CE60078CCE0381CCC7800FCB4307C
:1002A0003030307800CCCCCCCCCCCCFC00CCCCCC1E
:1002B000CCCC783000C6C6C6D6FEEEC600C6C66C2C
:1002C000386CC6C600CCCCCC7830307800FECC98E8
:1002D0003062C6FE007860606060607800C06030A8
:1002E000180C060200781818181818780010386CC6
:1002F000C60000000000000000000000FF303018C1
:1003000000000000000000780C7CCC7600E0607CEF
:10031000666666BC00000078CCC0CC78001C0C0C73
:100320007CCCCC7600000078CCFCC07800386C60C7
:10033000F06060F000000076CCCC7C0CF8E0606CE3
:10034000766666E60030007030303078001800784D
:10035000181818D870E060666C786CE60070303061
:1003600030303078000000ECFED6C6C6000000F841
:10037000CCCCCCCC00000078CCCCCC78000000DC1D
:1003800066667C60F0000076CCCC7C0C1E0000D849
:100390006C6C60F00000007CC0780CF80010307CC1
:1003A00030303418000000CCCCCCCC76000000CC2F
:1003B000CCCC7830000000C6C6D6FE6C000000C66B
:1003C0006C386CC6000000CCCCCC7C0CF80000FC77
:1003D000983064FC001C3030E030301C00181818D5
:1003E0000018181800E030301C3030E00076DC00D7
:1003F000000000000010386CC6C6C6FE00000000F9
:1004000000240027002A0000000000250028002BFF
:1004100000040404040404040402020202020203AD
:1004200003030303030102040810204080010204B7
:10043000081020010204081020000000080002013A
:1004400000000304070000000000000000009F08F7
:1004500011241FBECFEFD8E0DEBFCDBF11E0A0E07A
:10046000B1E0ECEDF5E102C005900D92A633B107C5
:10047000D9F722E0A6E3B1E001C01D92AE31B20788
:10048000E1F712E0C8E2D2E004C02197FE010E9429
:10049000D20AC732D107C9F70E9401090C94EC0AAD
:1004A0000C940000CF92DF92EF92FF920F931F9374
:1004B000CF93DF93EA0179014091E3015091E40188
:1004C0008417950714F0CA0101972091E501309136
:1004D000E601621773071CF0B90161507109FC0154
:1004E000EC0FFD1FE417F5071CF0EA01C81BD90B40
:1004F000AB014E0D5F1D421753071CF07901E61A40
:10050000F70AE091DD01F091DE018B010E0D1F1D58
:10051000015011099C012C0F3D1F2150310906800B
:10052000F781E02DAB01BC018DED91E00995E091E3
:10053000DD01F091DE010084F185E02D8DED91E08B
:1005400009959701DE010E94C30A6B017C01E091CD
:10055000DD01F091DE01C114D104E104F10471F078
:100560000284F385E02D60EE7FEF8DED91E009953B
:1005700081E0C81AD108E108F108E9CF0484F585C3
:10058000E02D8DED91E0DF91CF911F910F91FF90C4
:10059000EF90DF90CF900994CF93DF93EC0128E2A6
:1005A00030E041E050E0BC018CE390E00E94520258
:1005B000BE01695D7F4F21E030E048EC50E08CE304
:1005C00090E00E94520228E230E041E050E0BE019B
:1005D00083E091E00E94520221E030E048EC50E0DC
:1005E000BE018CE390E0DF91CF910C945202CF9248
:1005F000DF92EF92FF920F931F93CF93DF93EC0163
:10060000E881F98108851985015011092E813F8102
:10061000215031090680F781E02D40E050E060E094
:1006200070E00995E881F9810084F185E02DCE0123
:100630000995AE81BF81288539850E94C30A6B0167
:100640007C0183E0F694E794D794C7948A95D1F718
:10065000E881F981C114D104E104F10409F44CC02A
:100660000284F385E02D60E070E0CE010995E88119
:10067000F9810284F385E02D60E070E0CE010995F8
:10068000E881F9810284F385E02D60E070E0CE011D
:100690000995E881F9810284F385E02D60E070E03E
:1006A000CE010995E881F9810284F385E02D60E0AF
:1006B00070E0CE010995E881F9810284F385E02D8F
:1006C00060E070E0CE010995E881F9810284F3854C
:1006D000E02D60E070E0CE010995E881F9810284A7
:1006E000F385E02D60E070E0CE01099581E0C81A45
:1006F000D108E108F108ACCF0484F585E02DCE01E6
:10070000DF91CF911F910F91FF90EF90DF90CF90ED
:100710000994CF92DF92EF92FF920F931F93CF93A2
:10072000DF936C017A018B01C0E0D0E0CE15DF05CC
:1007300089F0D8016D918D01D601ED91FC91019068
:10074000F081E02DC6010995892B11F47E0102C0CC
:100750002196ECCFC701DF91CF911F910F91FF90B0
:10076000EF90DF90CF900895FC01918D828D9817C6
:1007700061F0828DDF01A80FB11D5D968C91928D85
:100780009F5F9F73928F90E008958FEF9FEF089582
:10079000FC01918D828D981731F0828DE80FF11D4B
:1007A000858D90E008958FEF9FEF0895FC01918D66
:1007B000228D892F90E0805C9F4F821B91098F735F
:1007C00099270895FC01848DDF01A80FB11DA35A5C
:1007D000BF4F2C91848D90E001968F739927848F61
:1007E000A689B7892C93A089B1898C9180648C9358
:1007F000938D848D981306C00288F389E02D808143
:100800008F7D80830895EF92FF920F931F93CF9374
:10081000DF93EC0181E0888F9B8D8C8D981305C050
:10082000E889F989808185FD24C0F62E0B8D10E0C2
:100830000F5F1F4F0F731127E02E8C8DE8120CC035
:100840000FB607FCFACFE889F989808185FFF5CFDB
:10085000CE010E94E203F1CF8B8DFE01E80FF11D66
:10086000E35AFF4FF0820B8FEA89FB898081806217
:1008700007C0EE89FF896083E889F98980818064F7
:10088000808381E090E0DF91CF911F910F91FF90E5
:10089000EF900895CF93DF93EC01888D8823C9F002
:1008A000EA89FB89808185FD05C0A889B9898C9179
:1008B00086FD0FC00FB607FCF5CF808185FFF2CF14
:1008C000A889B9898C9185FFEDCFCE010E94E20302
:1008D000E7CFDF91CF91089590E0FC01E75CFB4FFB
:1008E0003491FC01EB5DFB4F2491FC01EF5EFB4F6B
:1008F000E491EE2309F43BC0332339F1333091F016
:1009000038F43130A9F0323001F584B58F7D12C052
:10091000373091F03830A1F03430B9F48091800054
:100920008F7D03C0809180008F77809380000DC001
:1009300084B58F7784BD09C08091B0008F7703C0E4
:100940008091B0008F7D8093B000F0E0EE0FFF1F2C
:10095000E95FFB4FA591B4918FB7F894EC916111C9
:1009600003C020952E2301C02E2B2C938FBF0895FA
:10097000CF93DF9390E0FC01EB5DFB4F2491FC01F2
:10098000EF5EFB4F8491882361F190E0880F991FFF
:10099000FC01E350FC4FC591D491FC01E95FFB4F92
:1009A000A591B491611109C09FB7F89488812095F1
:1009B00082238883EC912E230BC0623061F49FB7B1
:1009C000F8943881822F809583238883EC912E2B95
:1009D0002C939FBF06C08FB7F894E8812E2B2883F5
:1009E0008FBFDF91CF9108953FB7F89480913C017C
:1009F00090913D01A0913E01B0913F0126B5A89B89
:100A000005C02F3F19F00196A11DB11D3FBFBA2FA0
:100A1000A92F982F8827820F911DA11DB11DBC0100
:100A2000CD0142E0660F771F881F991F4A95D1F7C5
:100A300008958F929F92AF92BF92CF92DF92EF92E2
:100A4000FF926B017C010E94F4044B015C01C11414
:100A5000D104E104F104F1F00E94F404DC01CB01C3
:100A600088199909AA09BB09883E9340A105B105D7
:100A700070F321E0C21AD108E108F10888EE880E6F
:100A800083E0981EA11CB11CC114D104E104F1043F
:100A900019F7DDCFFF90EF90DF90CF90BF90AF9030
:100AA0009F908F9008955F9A08958EBD00000DB4B9
:100AB00007FEFDCF8EB50895862F5F982B9A2D984F
:100AC0009CB59F7B9CBD2D9A9CB590649CBD0E945B
:100AD00055055F9A0895CF93DF931F92CDB7DEB788
:100AE000872F5F982B9A2D989CB59F7B9CBD2D9A44
:100AF0009CB590649CBD69830E9455052B9A2D98E6
:100B00009CB59F7B9CBD2D9A9CB590649CBD6981D2
:100B1000862F0E9455055F9A0F90DF91CF9108951F
:100B2000862F5F982B982D989CB59F7B9CBD2D9A06
:100B30009CB590649CBD0E9455055F9A08956CE237
:100B40000E9490055F980895AF92BF92CF92DF9276
:100B5000EF92FF920F931F93CF93DF93EC015B0112
:100B60007A0169016AE20E949005B501CE010E94F6
:100B70006B05B601CE010E946B056BE2CE010E94AF
:100B80009005B701CE010E946B05B801CE01DF913F
:100B9000CF911F910F91FF90EF90DF90CF90BF907A
:100BA000AF900C946B050F931F93CF93DF93EC01E1
:100BB0006930710519F06A35710571F48AE590E0C4
:100BC0009D838C8380EF90E09F838E8380E491E00F
:100BD0009987888718E434C06231710519F0643B45
:100BE000710571F484EB90E09D838C8380E491E047
:100BF0009F838E8380EF90E09987888718E320C0D9
:100C00006B31710521F07E7F6E30710571F48EE0DD
:100C100091E09D838C8380EF90E09F838E8380E4BE
:100C200091E09987888718E80BC01D821C8280E4B8
:100C300091E09F838E8380EF90E09987888718EEFC
:100C400066E3CE010E949005612FCE010E945C05F3
:100C5000E881F98108851985015011092E813F81AC
:100C6000215031090680F781E02D40E050E060E03E
:100C700070E0CE010995DF91CF911F910F910895FA
:100C8000CF93DF931F92CDB7DEB7872F2B9A2D9886
:100C90009CB59F7B9CBD2D9A9CB590649CBD69833F
:100CA0000E9455052B9A2D989CB59F7B9CBD2D9A33
:100CB0009CB590649CBD6981862F0F90DF91CF9188
:100CC0000C945505CF92EF92FF920F931F93CF9301
:100CD000DF93EC01262F6A3081F48EAD9FAD9BAF80
:100CE0008AAF2CA92F778CAD9DAD38E0239F800D66
:100CF000911D11249DAF8CAF47C0862F8B7F89300B
:100D000009F442C06AAD7BAD203219F4611571055A
:100D1000D9F1E881F981E8ACF9AC0EA91FA94CAD75
:100D20005DAD0088F189E02DCCA8CE010995BC010C
:100D30009BAF8AAF8DA9882339F12CA92F77822FF9
:100D400090E048EF4203900111244E815F81420FF1
:100D5000531F46175707C4F44EAD5FAD5BAF4AAFA4
:100D600043E0880F991F4A95E1F74CAD5DAD840FC4
:100D7000951F9DAF8CAF48855985240F351F2817C7
:100D8000390714F41DAE1CAE81E090E0DF91CF91E5
:100D90001F910F91FF90EF90CF900895CF92EF9217
:100DA000FF920F931F93DC01ED91FC910684F78570
:100DB000E02D09951F910F91FF90EF90CF9008952E
:100DC0002F923F924F925F926F927F928F929F925B
:100DD000AF92BF92CF92DF92EF92FF920F931F9349
:100DE000CF93DF9300D01F92CDB7DEB79B838A836A
:100DF000480188E0280290011124D901A350B04095
:100E00005D01BC2DBF77CB2EEA81FB818681978166
:100E1000F1E0FB1708F463C06B0128E0C20ED11C9F
:100E20008C159D050CF46EC0AA81BB811896ED91BE
:100E3000FC9119979A01285F3F4FE217F3070CF4D2
:100E400061C0AA81BB81ED91FC9111978A01095F74
:100E50001F4F9B01295F3F4F0680F781E02DCD0199
:100E60000995AA81BB81ED91FC9111970084F185D0
:100E7000E02DCD0109958501085F1F4FF5014490D4
:100E8000FFEFAF1ABF0A98E0692E712C20E8522EAE
:100E9000AA81BB81ED91FC911197852D842102845B
:100EA000F385E02D882319F0B401CD0103C0B7010B
:100EB0008A819B8109955694B1E06B1A710841F7BC
:100EC000A016B106D9F6AA81BB81ED91FC911197CC
:100ED0000484F585E02DCD010995C60176C0B8E002
:100EE000CB9E800111243B01600E711E8615970573
:100EF0004CF0040F151FEA81FB81208531852017F6
:100F0000310714F4019661C0AA81BB81ED91FC9177
:100F10001197015011090680F781E02D93012150AE
:100F20003109CD010995AA81BB81ED91FC91119701
:100F30000084F185E02DCD0109952501B8E04B0E27
:100F4000511CF5012490FFEFAF1ABF0A3C2C08E0BA
:100F500010E080E8D82E8D2D82212C2DA1F0AA81C1
:100F6000BB81ED91FC9111970284F385E02DB401D2
:100F7000CD01298309952981215089F7D694015003
:100F8000110949F710C0AA81BB81ED91FC9111971D
:100F90000284F385E02DB701CD01298309952981CC
:100FA000215089F7EBCF3A943110D1CFA414B50476
:100FB00009F0C7CFAA81BB81ED91FC911197048400
:100FC000F585E02DCD010995C3010F900F900F908D
:100FD000DF91CF911F910F91FF90EF90DF90CF9015
:100FE000BF90AF909F908F907F906F905F904F9049
:100FF0003F902F9008950E94D80A1F920F920FB62B
:101000000F9211242F933F934F935F936F937F938E
:101010008F939F93AF93BF93EF93FF9380E491E0FF
:101020000E94E203FF91EF91BF91AF919F918F9149
:101030007F916F915F914F913F912F910F900FBED4
:101040000F901F9018951F920F920FB60F921124B8
:101050002F938F939F93EF93FF93E0915001F09123
:1010600051018081E0915601F091570182FD12C03B
:101070009081809159018F5F8F7320915A0182175F
:1010800051F0E0915901F0E0E05CFE4F958F8093C4
:10109000590101C08081FF91EF919F918F912F9114
:1010A0000F900FBE0F901F9018951F920F920FB6C2
:1010B0000F9211242F933F938F939F93AF93BF93DE
:1010C0008091380190913901A0913A01B0913B0192
:1010D0003091370123E0230F2D3720F40196A11D15
:1010E000B11D05C026E8230F0296A11DB11D209356
:1010F00037018093380190933901A0933A01B0935E
:101100003B0180913C0190913D01A0913E01B09145
:101110003F010196A11DB11D80933C0190933D01BB
:10112000A0933E01B0933F01BF91AF919F918F91EA
:101130003F912F910F900FBE0F901F901895E0E4F4
:10114000F1E01382128288EE93E0A0E0B0E08483A5
:101150009583A683B78384E091E09183808385ECB7
:1011600090E09587848784EC90E09787868780EC71
:1011700090E0918B808B81EC90E0938B828B82EC62
:1011800090E0958B848B86EC90E0978B868B118E0C
:10119000128E138E148EEDEDF1E013821282158201
:1011A000148280E491E09783868380EF90E09187BA
:1011B0008087178616861586148613861286178AE8
:1011C000168A158A148A138A128A118A108A10AA1A
:1011D00011AA12AA13AA81E084AB85AB17AA16AA9A
:1011E0008FEF9FEF91AF80AF10921C0210921B0205
:1011F00015AE14AE13AE12AE84E191E091838083FC
:101200000895789484B5826084BD84B5816084BD7E
:1012100085B5826085BD85B5816085BD80916E0094
:10122000816080936E0010928100809181008260C5
:101230008093810080918100816080938100809102
:1012400080008160809380008091B10084608093F1
:10125000B1008091B00081608093B00080917A00ED
:10126000846080937A0080917A00826080937A0013
:1012700080917A00816080937A0080917A00806802
:1012800080937A001092C100E0915001F0915101D9
:1012900082E08083E0914C01F0914D011082E09159
:1012A0004E01F0914F018FEC808310925801E09134
:1012B0005401F091550186E08083E0915201F09154
:1012C0005301808180618083E0915201F09153014C
:1012D000808188608083E0915201F0915301808188
:1012E00080688083E0915201F091530180818F7D6D
:1012F000808361E088E00E94B804289861E089E07A
:101300000E94B80461E087E00E94B80461E08DE0CB
:101310000E94B80461E08BE00E94B80460E08CE0B9
:101320000E94B80429985F9A61E086E00E94B804A0
:101330005E9A10921D028CB5837F8CBD8CB58F7D1B
:101340008CBDCFB7F89480913601811127C0EBE1B5
:10135000F4E08491EFE2F4E09491E82FF0E0EE0FF6
:10136000FF1FE350FC4FA591B491EC91E92321F4C8
:1013700061E08AE00E946C0461E08AE00E94B804A7
:101380008CB580618CBD8CB580648CBD61E08DE0D6
:101390000E94B80461E08BE00E94B804809136019D
:1013A0008F5F80933601CFBF8CB58C7F81608CBD01
:1013B0008DB581608DBD5F9A289862E370E080E012
:1013C00090E00E941905289A68E770E080E090E0BC
:1013D0000E941905E8E6F0E08F010F5F1F4F64914E
:1013E0006F3FB1F1862F807C8038B9F0803C49F1A5
:1013F000803411F0F801F0CFC62FCF737F01DC2FBE
:10140000FFEFEF1AFF0ADD23C9F0F70164918DEDBC
:1014100091E00E949005D150F3CFC62FCF737F018A
:10142000DC2FFFEFEF1AFF0ADD2341F0F701649193
:101430008DED91E00E945C05D150F3CF0C0F111D92
:10144000D9CF6F7370E080E090E00E941905D2CF91
:101450008DED91E00E94F7028CB58C7F8CBD8DB52F
:101460008E7F8DBD61E089E00E94B804E2E4F4E083
:10147000E491E33019F150F4E130D1F0E230E1F5DC
:1014800084B5806284BD8FE788BD3AC0E73011F132
:10149000E83049F1E43081F58091800080628093EA
:1014A00080008FE790E090938B0080938A0028C0A3
:1014B00084B5806884BD8FE787BD22C0809180009D
:1014C0008068809380008FE790E0909389008093FC
:1014D000880016C08091B00080688093B0008FE7CC
:1014E0008093B3000DC08091B00080628093B00003
:1014F0008FE78093B40004C060E089E00E946C0430
:101500008DED91E00E94F70288E290E00E94CC020B
:10151000C6E2D1E080E590E029912223A1F044E0E9
:10152000C42EE12CF12C00EE1FEF4DE250E0BC0187
:101530008DED91E00E94E0062091E3013091E401FD
:10154000281739074CF788E790E00E94CC02CCE2DC
:10155000D1E08AE590E029912223A1F032E0C32E68
:10156000E12CF12C00EE1FEF42E850E0BC018DEDC4
:1015700091E00E94E0062091E3013091E4012817F8
:1015800039074CF7FFCF0E94DD0A332312F48A1B80
:101590009B0B0C94CD0A0E94DD0AB7FF0895821BB5
:1015A000930B0895EE0FFF1F0590F491E02D099421
:1015B00081E090E0F8940C94EC0AA29FB001B39FF4
:1015C000C001A39F700D811D1124911DB29F700D4C
:0C15D000811D1124911D0895F894FFCF97
:1015DC000000000003048903D603B403C8034A04C3
:1015EC000000000062068903D305A4059F05400690
:1015FC005305E006CE06537461727400486967683F
:06160C0073636F726500BC
:107E0000112484B714BE81FFF0D085E080938100F7
:107E100082E08093C00088E18093C10086E0809377
:107E2000C20080E18093C4008EE0C9D0259A86E02C
:107E300020E33CEF91E0309385002093840096BBD3
:107E4000B09BFECF1D9AA8958150A9F7CC24DD24C4
:107E500088248394B5E0AB2EA1E19A2EF3E0BF2EE7
:107E6000A2D0813461F49FD0082FAFD0023811F036
:107E7000013811F484E001C083E08DD089C08234E0
:107E800011F484E103C0853419F485E0A6D080C0E4
:107E9000853579F488D0E82EFF2485D0082F10E0AE
:107EA000102F00270E291F29000F111F8ED06801E7
:107EB0006FC0863521F484E090D080E0DECF843638
:107EC00009F040C070D06FD0082F6DD080E0C81688
:107ED00080E7D80618F4F601B7BEE895C0E0D1E017
:107EE00062D089930C17E1F7F0E0CF16F0E7DF06D8
:107EF00018F0F601B7BEE89568D007B600FCFDCFD4
:107F0000A601A0E0B1E02C9130E011968C91119780
:107F100090E0982F8827822B932B1296FA010C0160
:107F200087BEE89511244E5F5F4FF1E0A038BF0790
:107F300051F7F601A7BEE89507B600FCFDCF97BE46
:107F4000E89526C08437B1F42ED02DD0F82E2BD052
:107F50003CD0F601EF2C8F010F5F1F4F84911BD097
:107F6000EA94F801C1F70894C11CD11CFA94CF0C13
:107F7000D11C0EC0853739F428D08EE10CD085E9AC
:107F80000AD08FE07ACF813511F488E018D01DD067
:107F900080E101D065CF982F8091C00085FFFCCF94
:107FA0009093C60008958091C00087FFFCCF809118
:107FB000C00084FD01C0A8958091C6000895E0E648
:107FC000F0E098E1908380830895EDDF803219F02E
:107FD00088E0F5DFFFCF84E1DECF1F93182FE3DFCA
:107FE0001150E9F7F2DF1F91089580E0E8DFEE27F6
:047FF000FF270994CA
:027FFE00040479
:0400000300007E007B
:00000001FF